:020000040800F2
:100000006824002049010008172200081302000894
:1000100015220008570B0008E52500080000000025
:100020000000000000000000000000006D23000838
:10003000590B0008000000009B0100086F23000816
:1000400063010008630100086301000885220008BD
:1000500063010008630100086301000863010008F0
:1000600063010008630100086301000863010008E0
:1000700063010008630100086301000863010008D0
:1000800063010008630100086301000863010008C0
:1000900063010008630100086301000863010008B0
:1000A00063010008630100086301000863010008A0
:1000B0006301000863010008630100086301000890
:1000C0006301000863010008630100086301000880
:1000D0006301000863010008630100086301000870
:1000E0006301000863010008630100086301000860
:1000F0006301000863010008630100086301000850
:10010000630100086301000863010008630100083F
:10011000630100086301000863010008630100082F
:10012000630100086301000863010008630100081F
:10013000DFF810D000F0F8FC004800474D0B000835
:10014000AFF3008068240020064880470648004737
:10015000FEE7FEE7FEE7FEE7FEE7FEE7FEE7FEE777
:10016000FEE7FEE76924000831010008EFF3108084
:1001700072B6704780F310887047334A1368012BBA
:1001800004D04FF001031360304A1060304A116010
:1001900030484FF0805101607047EFF3108272B623
:1001A0002948016891B14FF00001016027480168BA
:1001B00029B1EFF3098121E9F00F006801602449BA
:1001C00009680968B1E8F00F81F3098882F31088A3
:1001D0004EF0040E70471E4908601C494FF00000A5
:1001E000086019494FF0010008601B484FF47F0177
:1001F000D0F8002041EA0201016016484FF080511A
:10020000016016480068006880F3088861B662B62D
:1002100070471EF0040F0CBFEFF30880EFF3098066
:1002200020E9F00F40F804ED1EF0040F0CBF80F33E
:10023000088880F3098800B503F090FB5DF804EBB3
:100240004EF0040E70470000440000203C000020E7
:100250004000002004ED00E020ED00E008ED00E0AB
:100260002DE9F05F0546002092469B4688460646EB
:10027000814640241BE0284641464746224600F07E
:1002800020F853465A46C01A914110D311461846D9
:10029000224600F043FB2D1A67EB01084F46224629
:1002A0000120002100F03AFB17EB00094E41201E0F
:1002B000A4F10104DFDC484631462A464346BDE846
:1002C000F09F202A04DB203A21FA02F00021704737
:1002D00021FA02F3D040C2F12002914008431946AE
:1002E0007047D2B201E000F8012B491EFBD27047E3
:1002F0000022F6E710B513460A4604461946FFF7F2
:10030000F0FF204610BDF0B480EA0102D40F420095
:10031000B2EB410F02D20246084611464A0042D0D3
:10032000C30DDDB2C1F3C752AD1A202D35DAC1F3CA
:10033000160141F4000204B15242C5F1200602FA4E
:1003400006F12A411044B3EBD05F23D0C4B1012D94
:10035000A0EBC35009DCF0BC4FF0004202EAC352EC
:10036000DBB200F5000000F003BB400000F180703C
:1003700000EBC350A0F1807040EAD170490009E061
:10038000490841EAC071A0EBC35000F500004008E5
:1003900000EBC350F0BC00F0E2BA6142012202EB74
:1003A0004101001BF6E7F0BC704781F00041AAE76D
:1003B00080F00040A7E780EA010210B502F0004398
:1003C000400022D04A001FD0010E01EB1261C0F3A1
:1003D0005600C2F3560240F4000042F40002A0FBB3
:1003E000022000047F39140400D0401C50EA12405F
:1003F00001D44000491EC2B20C0604EBD010401CD0
:100400004008802A02D003E0002010BD20F0010047
:10041000002900DA0020184310BD30B480EA010240
:1004200002F0004530F0004221F0004013D090B1BE
:10043000C30DD40DC2F31601C0F31600E41A41F443
:10044000000140F400027D34914201D3641C00E0BD
:100450004900002C02DA30BC002070474FF4000045
:100460000023914201D3891A034340084FEA410116
:10047000F7D151B1914202D14FF0004105E002D2D3
:100480004FF0010101E06FF0010103EBC45028447B
:1004900030BC00F064BA420005D0C0F3C7525242EB
:1004A000914201DC0020704700EBC15070472DE9FC
:1004B000FE4F804681EA0300C00F0C46009021F0F9
:1004C000004123F00045B8EB0200A94105D24046A7
:1004D000214690461C460B46024623F0004010433E
:1004E00047D0270DC7F30A00C3F30A510290401A00
:1004F000019040286BDAC3F3130040F4801B00988E
:10050000924620B10023D2EB030A63EB0B0B019858
:100510005946C0F14002504600F000FA06460D462A
:1005200050465946019A00F008FA10EB0800614164
:10053000002487EA115284EAE7731A4340D0009AF4
:1005400062B3019A012A4FEA075215DC001B61EBE6
:1005500002014FF0004202EA0752CDE90042001CBE
:1005600041F5801132462B4600F03FFA03B0BDE85A
:10057000F08F40462146F9E7001B61EB0201001CA9
:1005800041F5801300185B412018A2F5001747EBD6
:10059000030140EAD570B6196D4111E06D084FEACC
:1005A000360645EAC0754FEA0752001B61EB0201AF
:1005B000001C41F5801149084FEA300000195141F3
:1005C00032462B4603B0BDE8F04F00F0FFB900986B
:1005D000012240000023D0EB020263EBE07300989D
:1005E00021464FEAE074B8EB000061EB0401E9E753
:1005F00083F000435BE781F0004158E72DE9FE4FAF
:1006000081EA030404F0004421F0004100944FF01B
:10061000000B23F0004350EA01045ED052EA0304C9
:100620005BD0C3F30A54C1F30A552C44A4F2F3344B
:100630000194A0FB0254C1F3130141F48011C3F3F0
:10064000130343F4801301FB024400FB034E840AAE
:10065000970A44EA815447EA8357A4FB0768029546
:100660008D0A05FB07854FEA932C04FB0C542705E4
:10067000029D4FEA065847EA1637B5EB08056EEBC0
:10068000070C870E920E47EA811742EA8312A7FBF6
:100690000201B6EB0B0164EB00042B0D43EA0C33B3
:1006A0005E1844EB1C50DA465146E7FB0201C5F3E5
:1006B00013044FEA0B3343EA14534FEA0432019C0C
:1006C00043EA0603A4F10C040294009CCDE900B4B3
:1006D00000F08BF903B0BDE8F08F00200146F9E788
:1006E0002DE9F04D81EA030404F0004B21F00045B0
:1006F00014464FF0000A23F0004150EA050220D0D2
:1007000054EA01021DD0C5F30A570246C5F313038C
:10071000C1F31300C1F30A5640F4801543F480136B
:10072000A7EB0608101BD64608F2FD3873EB050050
:1007300002D308F1010801E092185B41B8F1000F03
:1007400003DA00200146BDE8F08D00204FF480114F
:10075000064684460EE0171B73EB050705D3121BF4
:1007600063EB050306434CEA010C49084FEA3000ED
:1007700092185B4150EA0107EDD152EA030012D012
:1007800082EA040083EA0501084305D0101BAB414F
:1007900006D20122002306E000224FF0004302E0CF
:1007A0006FF0010253101AEB06004CEB085110EBEE
:1007B0000A0041EB0B01BDE8F04D00F007B970B540
:1007C00021F0004303430CD0C1F30A550024D5EBBC
:1007D000040564EB0403D617AD1AB34102DB002015
:1007E000014670BD201841EB025170BD0EB540F2BC
:1007F000334102910021CDE900110A460B4600F079
:10080000F4F803B000BD00F0004220F00040C10D3C
:10081000C0F3160040F400007F2901DA0020704781
:10082000962903DCC1F19601C84001E09639884061
:10083000002AF4D04042704720F00040C10DC0F3C0
:10084000160040F400007F2901DA00207047962945
:1008500003DCC1F19601C840704796398840704763
:10086000C1F30A5210B5C1F3130140F2FF3341F452
:1008700080119A4201DA002010BD40F233439A42BF
:10088000A2F2334203DC5242FFF71BFD10BD904041
:1008900010BD00F0004230F000400AD0C10D01F55B
:1008A0006071C0F3160042EA0151C20840071143CB
:1008B000704700200146704701F0004330B421F03A
:1008C000004150EA010206D00A0DA2F56072C1F3A0
:1008D0001301002A02DC30BC00207047440F44EAB8
:1008E000C104C100E01830BC00EBC25000F037B8C2
:1008F00030B50B46014600202022012409E021FAF0
:1009000002F59D4205D303FA02F5491B04FA02F5EC
:100910002844151EA2F10102F1DC30BD202A04DBBF
:10092000203A00FA02F1002070479140C2F1200302
:1009300020FA03F3194390407047202A06DBCB17B7
:10094000203A41FA02F043EAE07306E041FA02F38A
:10095000D040C2F120029140084319467047002957
:10096000A8BF7047401C490008BF20F00100704735
:1009700010B4B0FA80FC00FA0CF050EA010404BF95
:1009800010BC704749B1CCF1200421FA04F411FAEB
:100990000CF118BF012121430843A3EB0C01CB1D2F
:1009A0004FEA00614FEA102042BF002010BC7047A0
:1009B00000EBC35010440029A4BF10BC7047401C7A
:1009C000490008BF20F0010010BC704710B5141E8C
:1009D00073F1000408DA401C41F1000192185B41F8
:1009E0001A4301D120F0010010BD2DE9F04D9246CF
:1009F0009B4611B1B1FA81F202E0B0FA80F22032E6
:100A00009046FFF78BFF04460F4640EA0A0041EA92
:100A10000B0153465A46084313D0114653EA0100CE
:100A200019D0C8F140025046FFF74BFC05460E4670
:100A3000504659464246FFF771FF084305D0012052
:100A400004E020463946BDE8F08D0020054346EA23
:100A5000E0762C4337430A986305E40AA0EB0800CC
:100A60000022FD0A44EA47540A3002D5002001461C
:100A7000E9E7010510196941DDE9084500196941F7
:100A8000BDE8F04DA2E72DE9F04D00231A461B1AF0
:100A90008A4103DB00200146BDE8F08DC1F30A5214
:100AA000C1F3130141F480154FF0000BD10702D1BF
:100AB00000186D41521E0027044640F2FF113846CF
:100AC00001EB620A3E468046024600204FF4801148
:100AD000FFF7F7FBC2197141BB1846EB0100B4EBFD
:100AE000030C75EB000C04D3E41A65EB0005174604
:100AF0000E46241908F101006D4180463428E3DDDB
:100B0000F91946EB0600091BA84103D24FF0FF324A
:100B1000134601E0002213461BEB070046EB0A5187
:100B2000BDE8F04DFFF752BF064C074D06E0E06808
:100B300040F0010394E8070098471034AC42F6D324
:100B4000FFF7FAFAD84A0008F84A000810B503F08F
:100B50003BFE002010BDFEE77047704770B543793B
:100B6000012B20D0012545710223037106683468EA
:100B700002F0100340F6FE729A409443D1E900213E
:100B80000A439A402243326002681468C0219940A7
:100B90008C431460026813688B4313600571002155
:100BA0004171084670BD022070BD70B5040003D0CD
:100BB0002079002510B105E0012070BD6571204647
:100BC00000F008F80220207125610120207100202A
:100BD00070BD000000B585B0002100910191029127
:100BE000039100680E49884218D10E48C16941F04E
:100BF0000051C161C16901F000510491816941F066
:100C0000040181618069694600F0040004901020AD
:100C1000009003200190044800F044F805B000BDA6
:100C200000740040001002400008014018B504683C
:100C300000940068104421B114300090036000203B
:100C400018BD0830F9E770B54279012A1ED001229B
:100C50004271022303710468266801F0100302FA4E
:100C600003F52E4326600029016811D00C6804F4B6
:100C700070153C249C40A54203D14B6843F002030D
:100C80004B60027100214171084670BD022070BDA9
:100C90000B68C3F383030F2BF3D14B6843F00103BD
:100CA000EEE700002DE9F84FDFF8C891002409F1C4
:100CB000040A0AF1040B23460F270BF1040ED1E0BE
:100CC0000125A54006EA0502AA4276D1DFF8A8C1AF
:100CD0004E68A6EB0C0866452BD00DDC032E34D0F5
:100CE00005DC36B3012E19D0022E2FD11BE0112EB8
:100CF00016D0122E2AD119E0B8F5881F19D006DCBB
:100D0000B8F5803F15D0B8F5801F1FD111E0B8F5B8
:100D1000001F0ED0B8F5041F18D10AE0CB6815E00B
:100D2000CB681B1D12E0CB6808330FE0CB680C3397
:100D30000CE08B682BB1012B4FF0080303D0456109
:100D400004E0042302E0056100E00023FF2A01D84B
:100D5000064601E000F104064FEA840501D9A5F139
:100D60002005D6F8008007FA05FC28EA0C0803FAEB
:100D700005F548EA0508C6F800804D68ED0070D515
:100D80003E4DAE6946F00106AE61AD6924F0030642
:100D900005F0010500953A4D06EB050CDCF808500E
:100DA000A607360F07FA06F825EA0805DFF8D4800B
:100DB000404503D14FF0000825E052E0DFF8C8803D
:100DC000404502D14FF001081DE0DFF8C0804045EA
:100DD00002D14FF0020816E0DFF8B480404502D19E
:100DE0004FF003080FE0DFF8AC80404502D14FF030
:100DF000040808E0DFF8A080404502D14FF0050864
:100E000001E04FF0060808FA06F848EA0508CCF8B1
:100E100008804D68D9F80060ED034D4601D51643B2
:100E200000E096432E604D68DAF80060AD03554649
:100E300001D5164300E096432E604D68DBF8006054
:100E4000ED025D4601D5164300E096432E604D68E5
:100E5000DEF80060AD02754601D5164300E096430A
:100E60002E60641C0A681646E2407FF429AFBDE894
:100E7000F88F000000040140000011100010024033
:100E80000000014000080140000C0140001001403A
:100E90000014014000180140001C01408068084017
:100EA00000D0012070470AB1016170470904FBE7D7
:100EB000014880687047000024000020074810B5F2
:100EC000016841F010010160032000F067F8002084
:100ED00000F006F800F024F8002010BD00200240C9
:100EE00070B50D4D04464FF47A712878B1FBF0F0DF
:100EF0000A490968B1FBF0F000F0F7FD48B9102C81
:100F000007D200222146501E00F028F800206C6015
:100F100070BD012070BD00002400002030000020C2
:100F20000C4808B5816941F001018161816901F0D6
:100F300001010091C16941F08051C161C06900F0B7
:100F4000805000900448416821F0E06141F08061E8
:100F5000416008BD0010024000000140F0B40E4B9B
:100F60001B680C46C3F30223C3F10705042D00D907
:100F70000425191D072901D2002300E0DB1E0126EC
:100F800006FA05F1491E214099409E40761E164002
:100F90003143F0BC01F038BB0CED00E0064900F035
:100FA000070208684FF6FF03184040EA0220034A90
:100FB00010430860704700000CED00E00000FA05E7
:100FC000014901200862704700000E4210B52CA4B0
:100FD00001461DCC86B08DE81D002DA02D4C00686B
:100FE0000490002004292FD00BDC01292FD00229E6
:100FF00028D100F077F96168C1F38131491C4900BB
:101000001EE0082920D010291CD161682268D20175
:1010100018D5C1F38342C9031DF8020009D56168E0
:1010200004AAC1F34041515C1B4AB2FBF1F14843B1
:1010300001E01A4948436168490203D44000032192
:10104000B0FBF1F006B010BD00F05CF9FAE7226ADF
:10105000C2F30121012903D1920701D5C803F1E7A9
:10106000022905D1626A920702D549F64040E9E7B4
:101070000329E7D121688903E4D54FF22440E1E751
:1010800002030405060708090A0B0C0D0E0F1010C9
:10109000010200000010024000127A0000093D0029
:1010A0002DE9F84305460078354CC00754D0E06977
:1010B0000026C00008D4E06940F08050E061E0699B
:1010C000012600F0805000902E480168C90512D416
:1010D0000168804641F480710160FFF7E9FE074630
:1010E00005E000BFFFF7E4FEC01B642823D8D8F852
:1010F0000000C005F6D5206A10F4407021D0A98800
:1011000001F4407181421CD0206A1F49012220F461
:1011100040700A6000220A602062C00711D0FFF709
:10112000C7FE074641F2883808E000BFFFF7C0FE5F
:10113000C11B414502D90320BDE8F883206A80071E
:10114000F4D5206A696820F44070084320621EB11B
:10115000E06920F08050E0612878800705D560685C
:10116000A96820F44040084360602878C00605D58F
:101170006068696920F48000084360600020DBE754
:101180000010024000700040400442422DE9F04748
:101190000F46050061D0434E306800F00700B842AA
:1011A00009D2306820F0070038433060306800F022
:1011B0000700B84251D128683B4C810712D540073F
:1011C00003D5606840F4E06060602878000703D5CC
:1011D000606840F4605060606068A96820F0F000CA
:1011E000084360602878C00728D06868012810D0BC
:1011F0002168022810D0890700292EDA616821F0C1
:10120000030101436160FFF753FE804641F28839D4
:101210000DE021688903EFE78901EDE7FFF748FE5C
:10122000A0EB0801494502D90320BDE8F0876068BA
:10123000696800F00C00B0EB810FEFD1306800F06E
:101240000700B8420BD9306820F0070038433060FF
:10125000306800F00700B84201D00120E5E72878A7
:10126000400705D56068E96820F4E06008436060E5
:101270002878000706D56068296920F4605040EAA4
:10128000C100606000F03EF86168084AC1F30311D4
:10129000515CC8400649086006480068FFF720FE18
:1012A0000020C2E700200240001002408C490008E4
:1012B000300000202800002001480068704700002E
:1012C000300000200448054900684968044AC1F319
:1012D0000221515CC84070473000002000100240DD
:1012E0009C4900080448054900684968044AC1F35C
:1012F000C221515CC84070473000002000100240FD
:101300009C49000812A185B00FC98DE80F0014A0F8
:10131000144A006804905168134801F00C03042B30
:1013200010D0082B0ED1C1F38343C9031DF803006D
:101330000AD5516804AAC1F34041515C0A4A50439E
:10134000B0FBF1F005B0704708494843FAE70000E8
:1013500002030405060708090A0B0C0D0E0F1010F6
:10136000010200000010024000127A0000093D0056
:101370002DE9F84F040070D02078C04DC00749D047
:101380006868C0F38100012807D06868C0F3810055
:10139000022809D16868C00306D52868800339D5BA
:1013A00060680028E7D035E06068B0F5803F0BD07A
:1013B00010B1B0F5A02F11D0286820F4803028603B
:1013C000286820F4802002E0286840F480302860FB
:1013D000606890B1FFF76CFD06460AE0286840F4AB
:1013E00080202860F0E700BFFFF762FD801B6428C3
:1013F00073D828688003F7D50CE0FFF759FD06463F
:1014000005E000BFFFF754FD801B6428F0D8286872
:101410008003F7D420789A4E80074FF001094FF0EF
:10142000000839D5686810F00C0F07D06868C0F361
:101430008100022809D16868C00306D428688007A3
:1014400014D52069012808D110E02069B0B1C6F890
:101450000090FFF72DFD074605E00AE1FFF728FDA4
:10146000C01B0228C4D828688007F7D5286861699E
:1014700020F0F80040EAC10028600DE0C6F80080C6
:10148000FFF716FD074604E0FFF712FDC01B022818
:1014900023D828688007F7D4207800072CD579480E
:1014A000A169D9B1C0F80090FFF702FD074604E03A
:1014B000FFF7FEFCC01B02280FD8686A8007F7D52B
:1014C00071484FF4FA510068B0FBF1F0009000BF92
:1014D0000098411E0091FAD20EE080E0C0F8008032
:1014E000FFF7E6FC074604E0FFF7E2FCC01B02281A
:1014F00075D8686A8007F7D42078400760D5E86916
:101500000027C00008D4E86940F08050E861E8692D
:10151000012700F0805000905C480168C90513D491
:101520000168834641F480710160FFF7C1FC824687
:1015300006E000BFFFF7BCFCA0EB0A0064284ED811
:10154000DBF80000C005F5D5E06801280AD008B135
:10155000052813D0286A20F001002862286A20F0AC
:10156000040002E0286A40F001002862E06841F2CD
:10157000883B98B1FFF79CFC82460BE0286A40F05C
:1015800004002862EEE700BFFFF792FCA0EB0A011F
:1015900059455AD8286A8007F6D50CE0FFF788FC31
:1015A000824605E0FFF784FCA0EB0A0159454CD8C0
:1015B000286A8007F6D41FB1E86920F08050E861FE
:1015C000E06988B36968C1F38101022944D0022827
:1015D000C6F8608004D0FFF76BFC044638E034E0C6
:1015E000FFF766FC074604E0FFF762FCC01B022819
:1015F0002BD828688001F7D4206AB0F5803F05D148
:101600006868A16820F4003008436860D4E90801E4
:101610000843696821F4741108436860C6F8609053
:10162000FFF746FC044606E025E000BFFFF740FC5C
:10163000001B022809D828688001F7D51BE000BFED
:10164000FFF736FC001B022802D90320BDE8F88F03
:1016500028688001F4D40EE00128F7D06868226A77
:1016600000F48031914204D1616A00F47010884224
:1016700001D00120EAE70020E8E700000010024066
:1016800000004242800442423000002000700040CE
:1016900002480168491C01607047000000000020FA
:1016A000704710B5044600680168C90716D0416844
:1016B000C90713D040684007204607D5FFF7F0FF61
:1016C00021686FF004004860042002E0FFF7E0FFAB
:1016D0000120607421686FF00100486010BD80B186
:1016E000017C01290FD00121017402224274026899
:1016F000136843F00103136041740021017408462C
:1017000070470120704702207047000070B5040048
:1017100003D0607C002610B105E0012070BD267466
:10172000204600F043F802206074204600F058F88C
:10173000042578BB204600F06FFD58BB2068416847
:1017400021F007014160A06820B11748016821F02D
:10175000010101601448001F0168A26821F4607152
:10176000114301606068411C04D10120FFF72EFC89
:1017700080B1401E21688A6822F00F0242EA1042BE
:101780008A602168CA6860F30F02CA60204600F0D0
:101790005DFD08B16574C0E7E67301206073A07356
:1017A0006074002070BD0000306C004008B5006817
:1017B000084988420DD1FFF703FC0748C16941F091
:1017C0000061C161C069054900F00060009001201E
:1017D000086008BD00280040001002403C0442425E
:1017E00070B504000AD02068416821F0080141600A
:1017F000FFF75EFB05464FF47A7608E0012070BDE6
:10180000FFF756FB401BB04201D9032070BD206892
:1018100040680007F4D5002070BD70B5040005D005
:101820000025A56294F8510010B106E0012070BDBA
:1018300084F85050204600F02FF8022084F8510020
:101840002068016821F040010160D4E901010843EA
:10185000D4E903121143084361690843218B01F461
:1018600000710843E1690843216A0843A16A0843FB
:1018700021680860A069042101EA104021684860DD
:101880002068C16921F40061C1616565012084F8A7
:101890005100002070BD000030B585B000240094D8
:1018A00001940294039400681449884223D1144897
:1018B000C16941F40041C161C16901F40041049171
:1018C000816941F00801816180690E4D00F00800D6
:1018D0000490282000900220019003200390694684
:1018E0002846FFF7DFF91020CDE9000469462846B5
:1018F0000294FFF7D7F905B030BD0000003C00406E
:1019000000100240000C01402DE9F84F044690F809
:10191000500000270A9E1D4692468B464FF0010953
:1019200001280ED0012084F85000FFF7C1FA80464C
:1019300094F85100616801280CD0B1F5827F07D17D
:1019400002E00220BDE8F88FA16809B9042801D09F
:101950000227C2E0BBF1000F27D0BAF1000F24D05C
:101960001DB394F85100042802D0052084F85100DA
:1019700000206065C4F838A0E587A587C4F830B0BA
:10198000E586A5862064606420680168490603D462
:10199000016841F040010160E068B0F5006F6068E7
:1019A00005D0E8B3012D46D07FE0012795E008B1CE
:1019B000012D39D1206B21680088C860206B801C04
:1019C0002063E08E401EE0862EE020688168890753
:1019D0000FD5E18E69B1B9F1010F0AD1216B0988E8
:1019E000C160206B801C2063E08E401EE0864FF0BB
:1019F000000920688168C9070CD0E18F51B1C06827
:101A0000A16B0880A06B801CA063E08F401EE08764
:101A10004FF00109FFF74CFAA0EB0800B04200E0DC
:101A200009E001D3701C50D1E08E0028CDD1E08FA9
:101A30000028CAD13FE0206B216800780873206B32
:101A4000401C2063E08E401EE0862EE02068816806
:101A500089070FD5E18E69B1B9F1010F0AD1216B68
:101A600009780173206B401C2063E08E401EE086E5
:101A70004FF0000920688168C9070CD0E18F51B18F
:101A8000C068A16B0870A06B401CA063E08F401E73
:101A9000E0874FF00109FFF70BFAA0EB0800B04216
:101AA00002D3701C01D010E07EB1E08E0028CDD1B1
:101AB000E08F0028CAD142463146204600F0FCFBA8
:101AC00028B101272020606507E0032705E0A06812
:101AD00018B92068C16880680090012084F851001E
:101AE000002084F8500038462CE710B5401EB0F1B5
:101AF000807F01D3012010BD4FF0E02460610F21F1
:101B0000601700F081FD0020A06107202061002007
:101B100010BD70B5040004D094F83900002510B150
:101B200006E0012070BD84F83850204600F022F80D
:101B3000242084F839002068C16821F40051C16074
:101B4000204600F0B5FC2068016921F49041016154
:101B50002068416921F02A0141612068C16841F48F
:101B60000051C160E563202084F8390084F83A0010
:101B7000002070BD30B585B000240094019402941B
:101B800003940068174988422AD11748816941F4B3
:101B900080418161816901F480410491816941F052
:101BA000080181618069114D00F008000490402017
:101BB0000090022001900320039069462846FFF719
:101BC00071F88020CDE90004694628460294FFF7A9
:101BD00069F80748416841F0E06141F00401416063
:101BE00005B030BD0038014000100240000C01403B
:101BF000000001402DE9F843044690F839001F46E3
:101C000016460D46202850D1A5B19EB194F8380053
:101C100001284AD0012084F838004FF00008C4F8A9
:101C20003C80212084F83900FFF742F9A6848146E0
:101C3000E68426E00120BDE8F883E08C401EE084C5
:101C4000A0684B46B0F5805F4FF000024FF0800176
:101C50002046009703D000F087FCE8B90DE000F0C3
:101C600083FCC8B928882168C0F30800486020694F
:101C700008B16D1C05E0AD1C03E0216815F8010BEF
:101C80004860E08C0028D8D14B46002240212046F5
:101C9000009700F069FC08B10320CCE7202084F80D
:101CA000390084F838800020C5E70220C3E700002F
:101CB0002DE9F04112061F4E42EA0141002441EA9B
:101CC00000254FF48058371515FA04F001D501228C
:101CD00000E0002241463046FFF7E5F80022394691
:101CE0003046FFF7E0F800BF00BF0122394630461A
:101CF000FFF7D9F8641CE4B2182CE5D34FF4006464
:101D0000002221463046FFF7CEF800BF00BF012277
:101D100021463046FFF7C7F800BF00BF0022394612
:101D20003046FFF7C0F821463046BDE8F0410022BA
:101D3000FFF7B9B8000C014010B500F04FF9D321FE
:101D4000002000F021F8D321BDE81040002000F071
:101D50001BB8000070B50B4E04464FF480550022AE
:101D600029463046FFF79FF8204600F091FAFF2001
:101D700000F08EFA0446012229463046FFF793F818
:101D8000204670BD001001402DE9F0410B4E0F467A
:101D900004464FF48055002229463046FFF783F869
:101DA00044F0800000F074FA384600F071FA2946D9
:101DB0003046BDE8F0410122FFF775B80010014040
:101DC0001CB500240C4900940A4801940860084698
:101DD000FEF7EBFE08B1FEF7C0FE00940022694654
:101DE00005480194FEF7BAFE002801D0FEF7B5FEC3
:101DF0001CBD000000740040401200202DE9F04F8F
:101E000085B000246648009401940294039481698B
:101E100041F010018161816901F010010491816933
:101E200041F020018161816901F020010491816903
:101E300041F004018161816901F00401049181692B
:101E400041F0080181618069DFF8589100F00800D5
:101E500004900022CC214846FFF725F8DFF848A17E
:101E600041F2F017002239465046FFF71CF8DFF820
:101E70003CB141F60348002241465846FFF713F8AB
:101E80000125CDE90054694648460294FEF70AFF51
:101E9000CC200226CDE90005CDE902466946484638
:101EA000FEF700FF00970396CDE9015469465046BE
:101EB000FEF7F8FECDF800800396CDE9015469469F
:101EC0005846FEF7EFFE4EF20400CDE900046946E5
:101ED00058460294FEF7E6FEAF02CDE9007469466B
:101EE00050460294FEF7DEFE0022E9025846FEF755
:101EF000DAFF002229035846FEF7D5FF00223946B3
:101F00005846FEF7D0FF6F03002239464846FEF7D9
:101F1000CAFF00970396CDE9015469464846FEF78B
:101F2000C1FE012280214846FEF7BDFF012210219B
:101F30005046FEF7B8FF012220215046FEF7B3FFBE
:101F4000012240215046FEF7AEFF0122802150467B
:101F5000FEF7A9FF012211025046FEF7A4FF01225D
:101F600011465846FEF79FFF012204214846FEF71E
:101F70009AFF012202215846FEF795FF012208210F
:101F80004846FEF790FF012239464846FEF78BFF90
:101F9000002211461046FFF78BFE05B0BDE8F08F1A
:101FA000001002400008014000100140000C0140F8
:101FB000094810B5074901604FF0FF314160002129
:101FC0008160FFF7A3FB002803D0BDE81040FEF7B7
:101FD000C4BD10BD00280040541200200F4810B5A9
:101FE0000D4901604FF4827141600021816001223E
:101FF000C160C0E904125202C0E9062101624162D7
:1020000081620A21C162FFF708FC002803D0BDE805
:102010001040FEF7A2BD10BD003C00406812002039
:102020000C4810B50A4901604FF4E13141600021CC
:1020300081600C22C160C0E904128161C161FFF7B7
:1020400068FD002803D0BDE81040FEF786BD10BD36
:1020500000380140C01200202DE9F0415D4E5E4F76
:102060000120FFF777FE04460220FFF773FE40EAE7
:1020700004204008FEF7BAFB0022584BFEF7BEFAD8
:102080006FF00E02FEF79BFBFEF716FC04460221E2
:102090003846FEF700FA804641465148FEF785F97A
:1020A000054640463146FEF7B8F906460121384656
:1020B000FEF7F1F9074621463046FEF77CF929463E
:1020C000FEF721F906463846FEF7E3FB07460D46C4
:1020D0003046FEF7DEFB02F0B2FB4FF08042414B90
:1020E000FEF7E5F93A462B46FEF7FAFAFEF7E4FB6F
:1020F00010F1FF4F6CD32046FEF7CBFB3A4A3B4B27
:10210000FEF77CFA02460B464FF060403849FEF776
:10211000CEF9FEF7D1FB064621460846FEF74BF9FD
:102120008046FEF7B6FB334A334BFEF767FA0746A5
:102130000D463046FEF7ADFB3A462B46FEF7B7F9A3
:10214000FEF7BAFB064621464046FEF734F98046C4
:10215000FEF79FFB294A2A4BFEF750FA07460D4629
:102160003046FEF796FB3A462B46FEF741FAFEF75D
:10217000A3FB064621464046FEF71DF98046FEF7C2
:1021800088FB204A204BFEF739FA07460D463046B9
:10219000FEF77FFB3A462B46FEF72AFAFEF78CFB4A
:1021A000054621464046FEF706F9FEF772FB174A40
:1021B000174BFEF723FA06460C462846FEF769FB46
:1021C00032462346FEF773F9BDE8F041FEF774BBD3
:1021D000BDE8F0810000C8427F051BB500207940B2
:1021E00066228037260270BFF163CC5D4BC8014088
:1021F000A3406EC0BB82C87D062F653F93C266C7F1
:10220000E03DD43ECE563151E2425E3E3EFAE461BC
:1022100027F3E43DFEE7704770B50446FEF748FE3D
:1022200005464FF47A7606E0FEF742FE401BB042C8
:1022300001D9032070BD206840688006F4D520686D
:10224000416841F010014160002070BD70B5044646
:102250000068416821F010014160FEF729FE054643
:102260004FF47A7607E000BFFEF722FE401BB04233
:1022700001D9032070BD206840688006F4D5002095
:1022800070BD00000148FFF70CBA00005412002096
:1022900001B582B000208DF804004FF47A700090F0
:1022A000012301AA02A90348FFF72EFB9DF80400B1
:1022B0000EBD00006812002038B50B46009204469F
:1022C0000022802100F008F8002804D0606D40F062
:1022D00020006065032038BD2DE9F0411D461746FA
:1022E0000E460446DDF8188008E0681C06D0FEF7AC
:1022F000DFFDA0EB0800A8420BD255B12068806832
:1023000036EA000030D00020B842EED10020BDE80F
:10231000F0812068416821F0E00141606068B0F51B
:10232000827F0BD1A068B0F5004F02D0B0F5806F6E
:1023300004D12068016821F040010160A06AB0F575
:10234000005F09D12068016821F400510160206814
:10235000016841F400510160012084F8510000201F
:1023600084F850000320D2E70120CDE7704710B574
:1023700001F00AFC01F0DAFFBDE8104001F012BCE8
:1023800070B596B028216846FDF7B2FF14210AA85F
:10239000FDF7AEFF18210FA8FDF7AAFF01240520C5
:1023A00000250090CDE902544FF4803001900226C0
:1023B0000494CDE907604FF4E01009906846FEF7F9
:1023C000D7FF08B1FEF7C9FB0F20CDE90A064FF48D
:1023D0008060CDE90C5002210AA80E95FEF7D6FECA
:1023E00008B1FEF7BAFB4FF48070CDE90F400FA89B
:1023F000FEF756FE002801D0FEF7AFFB16B070BD09
:10240000144910B54868144A10F00C03134803D05F
:10241000042B01D0082B09D002604968104AC1F38F
:102420000311515C0268CA40026010BD4A684B68E3
:1024300002F470124FF0020413F4803F04EB924256
:1024400002D04B689B0301D5064B00E0024B5A4378
:10245000E2E700000010024000127A003000002085
:102460008C49000800093D000D48016841F0010158
:10247000016041680B4A1140416001680A4A1140FD
:102480000160016821F480210160416821F4FE01AE
:1024900041604FF41F0181600449C0030860704728
:1024A000001002400000FFF8FFFFF6FE08ED00E01C
:1024B0002DE9F041044600680169E26821F44051C9
:1024C000114301612169A0680843616908432168DB
:1024D000CA6841F20C639A430243CA6020684169AA
:1024E000A26921F44071114341611E4920686425AD
:1024F0003226884202D1FEF7F5FE01E0FEF7E2FE49
:1025000000EBC00101EB001160686FF0180780005C
:10251000B1FBF0F2B2FBF5F2B1FBF0F37A4303EB5F
:102520008202B1FBF0F306EB0212B2FBF5F2B3FB51
:10253000F5F302F0F00202EB0312B1FBF0F3B1FB92
:10254000F0F0B0FBF5F0784303EB800006EB0010F1
:10255000B0FBF5F0216800F00F0010448860BDE882
:10256000F0810000003801402DE9F04198461746FF
:102570000E460446069D1DE0681C1BD02DB1FEF7DB
:1025800097FCA0EB0800A84214D92068C16821F488
:10259000D071C1602068416921F0010141612020B2
:1025A00084F8390084F83A00002084F838000320C9
:1025B000BDE8F0812068006836EA000004D0002001
:1025C000B842D9D00020F3E70120F9E701B54FF672
:1025D000FF73012269460248FFF70CFB08BD0000AB
:1025E000C0120020FEE700000FB4054B10B503A990
:1025F000044A029800F05AF810BC5DF814FB000081
:10260000212D0008C40000200907090E002804DB62
:1026100000F1E02080F80014704700F00F0000F196
:10262000E02080F8141D7047002806D00E4910F0F5
:10263000FF0F03D0C0B2085C401C704710F47F4FFE
:1026400004D0C0F30720085C0930704710F47F0FF6
:1026500004D0C0F30740085C1130704701EB1060F4
:102660000078193070470000A449000802E008C84B
:10267000121F08C1002AFAD170477047002001E0FC
:1026800001C1121F002AFBD17047000001490860F8
:1026900070470000C800002003480168814201D053
:1026A0000120704700207047A80000202DE9FF4F4F
:1026B00089B09B460446002506E025280BD05A46E3
:1026C0000B999047641C6D1C20780028F5D10DB043
:1026D0002846BDE8F08F0027B8460122474900E0B0
:1026E000074314F8013F203B02FA03F00842F7D1F8
:1026F00020782E2819D114F8010F47F004072A2852
:102700000ED06FF02F022078A0F1300109290CD8EB
:1027100008EB880102EB410100EB0108641CF2E7C1
:102720000A98641C50F8048B0A9020780028CED0B8
:10273000642808D0692806D075281ED05A460B99FF
:1027400090476D1C58E00A994FF00A0901C90A9197
:10275000002802DA40422D2102E0390504D52B2160
:102760008DF82010012103E0F90704D02021F7E7BC
:102770008A4608AE0DE00021FAE70A994FF00A09EF
:1027800001C90A91F7E74946FEF7B2F8303106F879
:10279000011D0028F7D1ADEB060000F120097807F4
:1027A00001D44FF00108C84502DDA8EB090000E0A4
:1027B00000208046002706E008A85A46C05D0B9915
:1027C00090476D1C7F1C5745F6DB04E030205A46CD
:1027D0000B9990476D1CB8F10001A8F10108F5DCD8
:1027E00005E016F8010B5A460B9990476D1CB9F19C
:1027F0000001A9F10109F4DC641C65E70928010066
:102800002DE9FC411F460446DDE90831DDE90A6592
:10281000143040600060C4E90827C4E90A310A4660
:10282000232118461C3401F0F3F9D4E903014218BE
:10283000D4E90101104B121F01F08AF944F81A0B78
:10284000002004F801690D4A04F8036BE4E802056E
:1028500044F8105901C404F83C0B01C444F874094D
:10286000009023460190194604F1440001F0D0FD88
:102870000020BDE8FC810000F93F00083342000859
:10288000F0E905124A60D0E9001211604060006072
:10289000704700008CB005200A900220039084A0AD
:1028A000002607C88DE8070084A03746056834462F
:1028B00083A0FFF799FE8848E94683464460447048
:1028C00084704FF00A0A761C47F100070A9801F05D
:1028D0002DFC002211461046FFF7EAF9DBF8040050
:1028E0005C4610F1FF4F0CD361786420B1FBF0F22D
:1028F00000FB1211B1FBFAF1280E19F8012003991F
:1029000018E063786421B3FBF1F201FB1232B2FBF1
:10291000FAF219F80280FDF776FF4FF47A7190FB16
:10292000F1F201FB1201642091FBF0F1280E19F87D
:1029300001104246FFF7BCF90A9801F0F7FB0022AC
:1029400011461046FFF7B4F960784FF46161804694
:102950004843A178C1EB011110EB810003D05F481F
:102960000068012811D0B8FBFAF20AFB128119F8AD
:10297000010040F001086068FDF75EFF0146642039
:10298000B1FBF0F200FB12111BE00A987D21B1FBB4
:10299000F0F2D31730463946FDF762FCB8FBFAF285
:1029A0000AFB1281C00719F8010001D140F00100B3
:1029B00080466068FDF740FF6421B0FBF1F201FB47
:1029C0001201B1FBFAF1C5F3074019F801104246B4
:1029D000FFF76EF90A9801F0A9FB00221146104694
:1029E000FFF766F9A1786420B1FBF0F200FB12104A
:1029F000B0FBFAF1A34619F801806068FDF71CFFEF
:102A0000B0FBFAF20AFB1201424619F8010040F04D
:102A10000101C5F30720FFF74BF90A9801F086FB87
:102A2000002211461046FFF743F960784FF46161C8
:102A3000A4784843C4EB041110EB810003D027486D
:102A40000068012808D0B4FBFAF10AFB114119F81B
:102A5000010040F0010419E00A987D21B1FBF0F279
:102A6000D31730463946FDF7FBFBC00706D0B4FB51
:102A7000FAF20AFB124219F8024007E0B4FBFAF13D
:102A80000AFB114119F8010040F001041449DBF878
:102A90000400FDF790FCFDF7CFFEB0FBFAF20AFB55
:102AA0001201E8B219F801102246FFF701F90AE70E
:102AB000FC60DAF266B6BEE0FEF600001020408050
:102AC00064705F7468726561642073746172747598
:102AD00070210D0A000000001C00002004000020EE
:102AE0000000204126A0FFF77FFD284C0022402156
:102AF0002046FEF7D8F9264D012211022846FEF79E
:102B0000D2F9012280212846FEF7CDF90122402189
:102B10002846FEF7C8F9012280212046FEF7C3F9B6
:102B2000012210212846FEF7BEF901222021284665
:102B3000FEF7B9F9174D012211462846FEF7B3F901
:102B4000012204212046FEF7AEF901220221284687
:102B5000FEF7A9F9012208212046FEF7A4F9012277
:102B600051032046FEF79FF9002211461046FFF759
:102B70009FF8002240212046FEF795F9FEE700006D
:102B8000706F77204F4646210D0A00000008014073
:102B900000100140000C014010B5FDF77AFE0C2238
:102BA000FDF70DFE074A084BFDF79AFDFDF758FEAD
:102BB00080B240F6FF71884200D30846BDE810405D
:102BC00001F018BE2C489532928D30407FB502211D
:102BD0004FF47A70CDE900010023294A29A12C483D
:102BE00001F016FC64250A20CDE902054FF40074BB
:102BF0002849CDE9001427480023274A27A178381F
:102C000001F07CFA0920CDE902052749CDE900143D
:102C100025480023254A26A1783801F06FFA0B20B9
:102C2000CDE902052549CDE9001424480023244AB2
:102C300024A1783801F062FA0C20CDE9020524497C
:102C4000CDE9001422480023224A23A1783801F05C
:102C500055FA1048783801F0B5FA1348783801F081
:102C6000B1FA1648783801F0ADFA1948783801F011
:102C7000A9FA074801F0ECFB04B0002070BD000089
:102C80003D48000874645F74696D6572310000002E
:102C9000CC000020E8030020AD2D00086B65795FB3
:102CA0007468726561640000600600209528000861
:102CB00064705F746872656164000000D808002069
:102CC0008D48000874656D705F746872656164009A
:102CD000500B0020E948000874696D655F746872E4
:102CE000656164001FB508220848642391018DE8DE
:102CF0000F000023064A07A1783801F0FFF90348C6
:102D0000783801F05FFA04B0002010BD7001002097
:102D1000F9350008706F775F746872656164000050
:102D200010B50446C0B2FFF751FC204610BD0000AC
:102D300010B5FEF7E7FA01460BA0FFF755FCFEF7CA
:102D4000BBFA01460DA0FFF74FFCFEF7BBFA0146A8
:102D50000EA0FFF749FCFEF7C5FA0146BDE810409A
:102D60000EA0FFF741BC0000537973436C6F636B97
:102D7000467265713A25640D0A00000048434C4BC9
:102D8000467265713A25640D0A00000050434C4BB1
:102D900031467265713A25640D0A000050434C4B70
:102DA00032467265713A25640D0A000008B5D0A05C
:102DB000FFF71AFCD44C00210E46D4A02268FFF77E
:102DC00013FC0122D94F150229463846FEF76BF84D
:102DD000012280213846FEF766F80122402138465C
:102DE000FEF761F8DFF84883012280214046FEF7B4
:102DF0005AF8012210213846FEF755F80122202109
:102E00003846FEF750F8002280214046FEF74BF886
:102E1000002229463846FEF746F84FF00309C54917
:102E20004FF00008CDF80090C4F80080C24DDFF8E4
:102E30000CB34FF0010AC1F8008000BFC04C4FF442
:102E4000005739462046FEF729F800287CD1CBF8F8
:102E500000A0286818B16FE0052001F067F9394635
:102E60002046FEF71BF80028F6D0B649B14F0026E1
:102E70000868401C086000F00100286000980321E9
:102E8000B0FBF1F201FB1200386001228021A8485A
:102E9000FEF709F801221021A448FEF704F80122E8
:102EA0002021A248FDF7FFFF386820B1012806D095
:102EB000022807D00BE0002280219D4805E0002277
:102EC000102101E0002220219848FDF7ECFF9D48E9
:102ED0002A6801689CA0FFF787FB35E0052001F018
:102EE00025F9761CB6F5167F26D301223E463946D3
:102EF0008F48FDF7D8FF934F9E493868401C3860D3
:102F000000F00100286081F8008081F8018081F8DC
:102F100002809949C1F8008002E0052001F006F91D
:102F200031462046FDF7BAFF0028F6D000262A6871
:102F300085A03968FFF758FB4FF400573946204603
:102F4000FDF7ACFF0028C9D04FF4004739462046B2
:102F5000FDF7A4FF78BBCBF800A002E0052001F04C
:102F6000E5F839462046FDF799FF0028F6D009F12B
:102F700001000321B0FBF1F2814601FB1290624F88
:102F80000122110238606948FDF78DFF012280217E
:102F90006648FDF788FF012240216448FDF783FF62
:102FA000386820B1012807D0022808D00CE00022A0
:102FB0004FF4807105E00FE00022802101E0002243
:102FC00040215A48FDF76FFF6B4950A0C1F80080BF
:102FD00049463A68FFF708FB286800287DD104219C
:102FE0002046FDF75BFF78BBCBF800A002E0052090
:102FF00001F09CF804212046FDF750FF0028F6D090
:1030000000980321401CB0FBF1F2009001FB12007C
:10301000484F0122802138604548FDF744FF0122D6
:1030200010214248FDF73FFF012220213F48FDF7D4
:103030003AFF386820B1012807D0022808D00CE0F8
:10304000002280213A4806E00FE00022102101E032
:10305000002220213548FDF726FF474947A0C1F847
:1030600000803A680099FFF7BFFA4FF48041344876
:10307000FDF714FF88BB00242746CBF800A014E01E
:103080000A2001F053F8641C192C0ED3394800248F
:1030900001270178491CC9B20170192902D14146A2
:1030A00080F80080417080F802804FF4804124480D
:1030B000FDF7F4FE0028E3D067B92E490878401CDC
:1030C000C0B20870192802D1404681F800804870CB
:1030D00081F802802849274800E005E0C1F8008017
:1030E00001782FA0FFF780FA0A2001F01FF8A5E66B
:1030F0006B65795F74687265616420737461727462
:103100007570210D0A0000001000002066616E5FDE
:10311000636F756E743A25642C73775F66616E5FBA
:10312000666C61673A25640D0A00000000100140DA
:10313000000801400C0000200400002018000020BE
:10314000000C01400800002073746172745F6B65AD
:10315000795F636F756E743A25642C73775F73744F
:103160006172745F73746F705F666C61673A256437
:103170000D0A00001C000020140000206D6F646523
:103180005F6B65795F636F756E743A25642C737736
:103190005F6D6F64655F666C61673A25640D0A0058
:1031A0005345545F74696D655F686F75723A256445
:1031B0000D0A000000252E46FDF780FEFFF7E0F81F
:1031C000FEF71CFEFEF7FCFDFEF7F2FECA48FEF716
:1031D00086FAFEF725FF00F00BFEFFF7A9FDFFF7CB
:1031E00081FDC648FFF7D8FCDFF814A3DFF814B35D
:1031F000DFF81483DFF81493C54C2068012802D04F
:1032000000287DD007E0206928B1A06838B10128E6
:1032100077D0022876D00A2000F088FFEDE7BDA025
:10322000FFF7E2F900224FF400514E464846FDF701
:103230003AFEB1468AE0BBA0FFF7D6F90026324637
:1032400001214046FDF72FFE002204214846FDF7EC
:103250002AFE052000F06AFF47F2305713E0E068CD
:1032600020B1012804D0022804D006E0504602E034
:10327000584600E0AE48FFF78FFC642000F056FF90
:10328000761CBE4202D220680128E8D001221146F5
:103290004046FDF708FE012204214846FDF703FEE3
:1032A0000020FFF779FCA3A0FFF79EF9A4A0FFF789
:1032B0009BF920680026012838D1002202214746C8
:1032C0004046FDF7F0FD002208214846FDF7EBFDE2
:1032D000B8469E4F27E09E483968814209DA0022AD
:1032E00002214046FDF7DFFD002208214846FDF798
:1032F000DAFD9849386888420DDD0122022102E09A
:10330000E9E047E08CE04046FDF7CDFD01220821D1
:103310004846FDF7C8FD642000F008FF41F27070D8
:10332000761C864202D220680128D4D001220221D4
:103330004046FDF7B8FD012208214846FDF7B3FDE0
:1033400085A0FFF751F90A2000F0F0FE206801285F
:103350003FF471AF0122114646464046FDF7A3FDFA
:10336000012204214F464846FDF79DFD012202211E
:103370003046FDF798FD012208213846FDF793FD00
:1033800003200122A06051033846FDF78CFD002682
:1033900074A042E077A0FFF727F900224FF4005114
:1033A0004E464846FDF77FFD002201214046FDF7CD
:1033B0007AFD002204213046FDF775FD052000F05E
:1033C000B5FE574610E0E06820B1012804D002287D
:1033D00004D006E0384602E0584600E05448FFF7C3
:1033E000DBFB642000F0A2FE20680128EBD0002067
:1033F000FFF7D2FB012211464046FDF754FD0122A2
:1034000004213046FDF74FFD03200122A060510347
:103410003046FDF748FD00265AA0FFF7E5F8ECE638
:103420005CA0FFF7E1F800224FF400514846FDF799
:103430003AFD474F454E22E03068B84209DA002293
:1034400002214046FDF72FFD002208214846FDF7E6
:103450002AFD40483168814209DD012202214046AF
:10346000FDF721FD012208214846FDF71CFD6420DF
:1034700000F05CFE41F270706D1C854202D2206843
:103480000128D9D00025012202214046FDF70BFD7D
:10349000012208214846FDF706FD42A0FFF7A4F8E7
:1034A000454F02E0642000F041FE3068B84202DB84
:1034B00020680128F6D00320A0600020606001226F
:1034C000206051034846FDF7EEFC00263BA0216832
:1034D000FFF78AF891E6642000F028FE6069761C08
:1034E000012805D040F6B830864298D3FFF7FAFAA3
:1034F0000026666181E6000054120020CDCCCC3D50
:10350000000090400000B040000C01400008014065
:10351000040000204D6F6465315F73746172742123
:103520000D0A000046414E5F576F726B210D0A0075
:103530000000D04046414E5F53544F50210D0A00C9
:10354000484F545F576F726B210D0A002000002016
:103550000000C8420000DC42484F545F53544F50B3
:10356000210D0A004D6F6465315F73746F70210D1A
:103570000A0000004D6F6465325F737461727421DC
:103580000D0A00004D6F6465325F73746F70210D1A
:103590000A0000004D6F6465335F737461727421BB
:1035A0000D0A00004D6F6465335F686F745F73745C
:1035B0006F70210D0A000000000048424D6F6465E5
:1035C000335F776F726B5F73746F702C73775F7399
:1035D000746172745F73746F705F666C61673D25B0
:1035E00064210D0A0000000010B500F047F9BDE8A5
:1035F0001040FFF7DFBD000032A0FEF7F5FF002608
:10360000364DDFF8DC803446AF150A2000F08EFD21
:1036100001212846FDF742FC48B932490120641CCB
:103620000860C82CF1D926B10026FFF75BFA002408
:10363000EBE72DA0FEF7D8FF00223946444640466E
:10364000FDF731FC002280212046FDF72CFC0022F2
:1036500040212046FDF727FC002280212846FDF767
:1036600022FC002210212046FDF71DFC0022202113
:103670002046FDF718FC012240212846FDF713FCE7
:1036800002E0052000F052FD01212846FDF706FC6E
:103690000028F6D04FF4966000F048FD012239462C
:1036A0002046FDF700FC012280212046FDF7FBFBB0
:1036B000012240212046FDF7F6FBFFF787FA0024A0
:1036C0000126A2E7706F775F74687265616420738A
:1036D000746172747570210D0A00000000080140C9
:1036E0000010014018000020706F77204F4E210D10
:1036F0000A0000002DE9F04F85B09946DDE90EA5DE
:10370000109CAB46630602D5DFF814C103E0DFF876
:1037100010C1ACF1110CE30601D524F00104E3075C
:1037200001D0302300E0202300260493A3070BD50B
:10373000002A02DA2D26524206E0630701D52B2625
:1037400002E0230700D520260023EE4622B93022CE
:103750008DF8002001230CE0B9F10A0F14D002F01B
:103760000F0812091CF808800EF803805B1C002A61
:10377000F2D1AB4200DD1D46AAEB050214F0110F99
:103780004FF0200708D015E00A27B2FBF7F807FB37
:103790001828B2FBF7F2E5E73EB1002A05DD521E1C
:1037A00003E0884200D20770401CB2F1000CA2F185
:1037B0000102F6DC26B1884200D20670401C521E7F
:1037C000E40605D508E0884201D2049C0470401C40
:1037D000141EA2F10102F6DC30242E466D1E9E421C
:1037E0000ADD884200D20470401CF6E7884201D20C
:1037F000E55C0570401C00E074461D1EA3F101034A
:1038000007DDBBF1000FF1D103E0884200D2077061
:10381000401C131EA2F10102F7DC05B0BDE8F08FD9
:10382000B54A00081FB50A4C14230A224FF48061E0
:10383000A4F580608DE80F000023064A06A120460B
:1038400000F05CFC04B02046BDE8104000F0BABCBB
:1038500000170020E93500086D61696E0000000066
:1038600070B5044C044D02E020688047241DAC4232
:10387000FAD370BDCC4A0008D04A000870B5044C99
:10388000044D02E020688047241DAC42FAD370BD8D
:10389000D04A0008D44A000810B5FCF767FC044A77
:1038A0005188491C5180BDE81040FCF763BC000002
:1038B0009C00002010B5FCF759FC0B4C6188491E98
:1038C00009B2618000290ADC00216180FCF752FC0A
:1038D0006068002807D0BDE8104000F011BABDE8CC
:1038E0001040FCF747BC10BD9C00002010B5FEF74F
:1038F00087FD0C484FF47A710068B0FBF1F0401E70
:10390000B0F1807F09D24FF0E021074A4861FF20E3
:1039100010700020886107200861BDE81040FFF7A3
:103920009FBF00003000002023ED00E02DE9F041B2
:10393000064600240D2700F0EBFA054609E0305D4D
:103940000A2802D13846FEF741FE305DFEF73EFE02
:10395000641CAC42F3D3BDE8F081000070B50546AD
:10396000041D2B48016819B12846884700284DD00E
:1039700028A0E16B00F024F92AA0216A00F020F9C8
:103980002CA0616A00F01CF92EA0A16A00F018F9C1
:1039900030A0E16A00F014F932A0216800F010F9BB
:1039A00034A0616800F00CF936A0A16800F008F9B5
:1039B00038A0E16800F004F93AA0216900F000F9AC
:1039C0003CA0616900F0FCF83EA0A16900F0F8F8A5
:1039D00040A0E16900F0F4F842A0216B00F0F0F89B
:1039E00044A0616B00F0ECF846A0A16B00F0E8F891
:1039F0002878400706D500F0BFFB014645A000F03F
:103A0000DFF802E04BA000F0DBF8FEE770BD00003D
:103A1000380000207073723A203078253038780AE8
:103A2000000000007230303A203078253038780AB3
:103A3000000000007230313A203078253038780AA2
:103A4000000000007230323A203078253038780A91
:103A5000000000007230333A203078253038780A80
:103A6000000000007230343A203078253038780A6F
:103A7000000000007230353A203078253038780A5E
:103A8000000000007230363A203078253038780A4D
:103A9000000000007230373A203078253038780A3C
:103AA000000000007230383A203078253038780A2B
:103AB000000000007230393A203078253038780A1A
:103AC000000000007231303A203078253038780A12
:103AD000000000007231313A203078253038780A01
:103AE000000000007231323A203078253038780AF0
:103AF00000000000206C723A203078253038780AB7
:103B0000000000002070633A203078253038780AB1
:103B10000000000068617264206661756C74206F3B
:103B20006E207468726561643A2025730D0A0D0A6F
:103B30000000000068617264206661756C74206F1B
:103B40006E2068616E646C65720D0A0D0A000000DB
:103B500070B50446121D22F007000022094D4038BE
:103B600040F82250521C102AFAD30162002141620F
:103B700081624FF0807200F13005C263C16285E856
:103B80001A0070BDEFBEADDE10B5FCF7EFFA044AC7
:103B90001178491C1170BDE81040FCF7EBBA000029
:103BA0004800002010B5FCF7E1FA044A1178491EDC
:103BB0001170BDE81040FCF7DDBA0000480000209D
:103BC0000FB47F2110B503AB0448029A00F0B6FC95
:103BD0000248FFF7ABFE10BC5DF814FB7018002024
:103BE0000268516002680A600160486070470268BC
:103BF000516002680A60016048607047D0E90012B5
:103C00004A60D0E900121160406000607047000017
:103C100010B50346CCB2042A1AD3810718D119462D
:103C200044EA042343EA034306E008C1103A08C10A
:103C300041F8083B41F8043C102AF6D201E008C1E3
:103C4000121F042AFBD20B4602E000BF03F8014B0F
:103C5000521EFBD210BD10B5044600202072FCF7A6
:103C600085FAF4E903124A60D4E900121160646035
:103C70002460BDE81040FCF77DBA0000074A00212F
:103C800002EB01131B78834202D102EB0110704753
:103C9000491C0529F4DB0020704700004C0000207F
:103CA0002DE9F041054617460E460846FFF7E6FFA8
:103CB0000446FFF7F1FD211D606800E000688842BE
:103CC000FCD1FFF7F7FD46F0800028720822394644
:103CD000284600F025F9FCF749FA54F8041F0C3582
:103CE0004D602168296025606C60BDE8F041FCF7FB
:103CF00041BA007A000601D50120704700207047C4
:103D000070B5FCF733FA114C05466088B0B9A0686D
:103D1000FEF78AFC0E49401E626851F830101439D3
:103D200091420BD020700B486160007801F11C01BA
:103D3000002802F11C0006D0FCF71FFA2846BDE857
:103D40007040FCF717BAFCF718FAF7E79C00002060
:103D5000F01800204800002010B50446FCF706FAD1
:103D6000024694F834000E4920F00F00401C84F8FD
:103D7000340094F8350001EBC00104F114004B68E5
:103D800018604B68A361486006486161A16B836855
:103D900019438160BDE810401046FCF7EBB9000004
:103DA000F01800209C00002010B50446FCF7DEF956
:103DB00004F11401D1E900235360D1E900231A6012
:103DC000A161616194F83520074951F8323001EB67
:103DD000C2018B4204D10549A36B8A689A438A6069
:103DE000BDE81040FCF7C6B9F01800209C00002088
:103DF00008B509A0FFF7E4FE0AA0FFF7E1FE12A054
:103E0000032300900122194612A0FFF7D9FEBDE856
:103E1000084018A0FFF7D4BE0A205C207C202F0A9F
:103E2000000000002D205254202D2020202020545E
:103E30006872656164204F7065726174696E672095
:103E400053797374656D0A004D61792031362032E3
:103E500030323100202F207C205C202020202025A3
:103E6000642E25642E2564206275696C6420257398
:103E70000A0000002032303036202D203230313917
:103E800020436F7079726967687420627920727458
:103E90002D746872656164207465616D0A000000AC
:103EA0002DE9F04100F03CFA0646FFF7F5FC174F0C
:103EB0003D6824E068696FF00041301AA5F11404F0
:103EC00088421ED22D682046FEF7DAFCFFF7F2FC8E
:103ED000D4E90710884700F023FA0646FFF7DCFC18
:103EE000607A810708D5C10706D020F00100607212
:103EF000204600F0ADFA02E020F001006072BD4201
:103F0000D8D1BDE8F041FFF7D5BC0000BC000020CF
:103F1000014600E0491C0A78002AFBD1081A7047C4
:103F200010B5002A07D0034611F8014B03F8014BE6
:103F30002CB1521EF8D110BD03F8011B00E0002186
:103F4000521EF9D110BD000010B50A4900230A4CD9
:103F50004B80184604EBC002401C526012602028BF
:103F6000F8DB1F20087003484B600C308B6040600A
:103F7000006010BD9C000020F018002010B5074C18
:103F8000A068FEF751FB0649401E51F83000143876
:103F90006060BDE810401C30FCF71DB99C0000209B
:103FA000F01800200148406000607047B400002015
:103FB0001FB50B4804220A23406000600948D10164
:103FC0008DE80F000023084A08A1783800F096F821
:103FD00004B00448BDE81040783800F0F3B80000A1
:103FE000BC000020681A00205542000874696D6505
:103FF0007200000000F0C6B870B513480468FCF702
:10400000B5F805462046FFF7CFFE042084F83400BB
:1040100004F1440000F0ECF92046FFF76AFE0128A5
:1040200001D1206F58B104F114010848FFF7D8FD01
:104030002846FCF79FF8BDE87040FFF761BE2046B8
:10404000FFF709FEF4E70000A0000020A800002010
:1040500000F002F8FCE7000070B521E0FCF786F8FC
:104060000546FEF719FB28B315480168A1F11404B1
:10407000D1E900024260D1E90002106049600960A4
:10408000FFF70AFC216F09B1204688472046FFF759
:1040900030FE012809D0FFF70DFC2846FCF76AF82E
:1040A000FEF7FAFA0028D9D170BD2046FFF7D3FDFC
:1040B000FFF700FC2846BDE87040FCF75BB8000045
:1040C000A80000201FB5094820231F2280218DE869
:1040D0000F000023064A07A1783800F00FF804B05B
:1040E0000248BDE81040783800F06CB8F0170020A6
:1040F000514000087469646C650000002DE9FF5FA1
:1041000092460EAA0C4692E8E0010A46994683467A
:104110000121FFF7C5FD8DE8E0014B4652462146DF
:104120005846FEF76DFB04B0BDE8F09F10B500F0F7
:10413000DDF8BDE8104000F025B870B5044690F8F1
:10414000340000F00F00022802D04FF0FF3070BDA5
:10415000FCF70CF8054604F11400FFF74FFD04F1DD
:10416000440000F0D3F92846FCF704F82046FFF796
:10417000F3FD002070BD000001480068704700009A
:10418000A0000020F1B5FBF7F1FF05460C480468DC
:10419000204600F02DF804F144006A46002106464E
:1041A00000F00EF9304600F053F92846FBF7E2FF25
:1041B000FFF7A6FD206B801C00D120630020F8BD16
:1041C000A000002010B590F83610012280F83510BC
:1041D0008A400221826380F83410FFF7AEFF034863
:1041E000006808B1FFF78CFD002010BDA000002082
:1041F00070B5044690F8340000F00F00012802D09A
:104200004FF0FF3070BDFBF7B1FF054694F8340066
:1042100020F00F00801C84F834002046FFF7C4FD16
:1042200004F1440000F072F92846FBF7A3FF0020D8
:1042300070BD10B504466FF00100206304F1140056
:10424000FFF7DCFC2046FFF787FDBDE81040FFF7D5
:1042500057BD00006FF000450B4800F0F1F8044630
:10426000401C09D000F05CF8201AA84201D2FFF7E8
:10427000C1FEFFF715FEEFE7FFF77EFFFFF7B8FF80
:10428000FFF73EFDF5E70000BC00002070B5FBF72E
:104290006DFF06461348046894F8340000F00F00E0
:1042A000012819D1D4E90501884215D004F1140080
:1042B0000546FFF7A3FC94F835000B4901EBC0005D
:1042C00041680D6041686960456028603046FBF7D1
:1042D00051FFFFF715FD02E03046FBF74BFF0020D2
:1042E00070BD0000A0000020F0180020002802DAB5
:1042F0004FF0FF3070474FF47A7190FBF1F290FB72
:10430000F1F301FB130000EB40034A43C3EBC01081
:104310004B1E03EBC00090FBF1F01044704700000F
:10432000014800687047000034000020094810B5BB
:104330000168491C0160FFF71FFF016C491E016401
:1043400003D1C16B0164FFF7A1FFBDE8104000F08D
:1043500003B80000340000202DE9F041FFF7E0FF32
:104360000646FBF703FF0746144D1EE060696FF039
:104370000041301A143C88421AD22046FEF780FAD7
:10438000D4E907108847FFF7CBFF0646607A81071C
:1043900008D5C10706D020F001006072204600F069
:1043A00057F802E020F0010060722C68AC42DDD1C9
:1043B0003846BDE8F041FBF7DDBE0000B400002048
:1043C00049B1012904D0022908D003290ED109E0FE
:1043D000406A10600AE01168416207E0417A21F00A
:1043E000020102E0417A41F002014172002070476F
:1043F00070B50546FBF7BAFE04462846FEF740FABC
:104400002046FBF7B7FE2846FFF725FC002070BDCD
:104410002DE9F0411746DDE906580A461E460446D6
:104420000A21FFF73DFC28F0010161720021C4E977
:104430000951C4E90776143464602460BDE8F08152
:104440000168814202D14FF0FF30704748697047E0
:10445000F8B50446FBF78AFE05462046FEF710FA3B
:10446000607A20F0010060722846FBF783FEFFF7B8
:1044700057FF616A0844A062FBF778FE0546607A40
:10448000400701D51F4A01E01E4A083A0020009269
:1044900002EBC002694653686FF0004C5DF82020C3
:1044A0000BE01268A2EBC0067769A66AB74202D099
:1044B000BE1B664503D341F820209A42F1D1114832
:1044C0000C380168491C016004F114010098FFF7E1
:1044D0008EFB607A40F0010060722846FBF74AFECE
:1044E000607A40070BD5084890F8340000F00F00C0
:1044F000012804D00448FFF720FEFFF701FC00204C
:10450000F8BD0000BC000020F019002070B5044682
:10451000407AC0070ED0FBF729FE05462046FEF77D
:10452000AFF92846FBF726FE607A20F001006072A2
:10453000002070BD4FF0FF3070BD00002DE9FF4F2F
:104540008946044600EB090783B080464FF0FF3AE6
:104550004FF0200BA74202D25746C8F1FF3907E1BE
:10456000252803D0BC4200D2207081E000260599A6
:10457000491C059108782D2811D02B2812D020280D
:1045800013D0232814D0302815D00A785546303A55
:104590000A2A13D205A800F03DF905461AE046F0B4
:1045A0001006E4E746F00406E1E746F00806DEE719
:1045B00046F02006DBE746F00106D8E72A2809D1B5
:1045C0000698491C059120C80690002D02DA6D421C
:1045D00046F01006CDF800A0059801782E2918D1D4
:1045E000401C05900178A1F130020A2A04D205A8E6
:1045F00000F010F9009008E02A2908D1401C05902D
:10460000069802C8069000910846002801DA0020AA
:104610000090059800210278682A01D06C2A02D106
:10462000401C1146059000780A236F287DD00CDCD1
:1046300063281FD004DC25287BD058280DD17EE0CC
:10464000642801D0692808D17DE070285ED07328E5
:104650002CD0752879D0782873D0BC4201D225207F
:1046600020700598641C0178D1B3BC4200D221703F
:10467000641C7AE0F00608D458466D1E002D04DD57
:10468000BC4200D22070641CF7E70699BC4211F8C6
:10469000040B069100D22070584602E0BC4200D2C2
:1046A0002070641C6D1E002DF8DC5EE0069808C8C2
:1046B000069003B93EA31846FFF72AFC009900298B
:1046C00002DD884200DD0846F1060AD459462A4632
:1046D0006D1E824205DDBC4200D22170641CF6E7EB
:1046E00052E0002106E0BC4201D21A782270491C37
:1046F0005B1C641C8142F6DB5A4629466D1E8142D2
:1047000033DDBC4200D22270641CF6E7681C02D183
:10471000082546F0010600980296CDE9005006985B
:104720001023394604C806901BE006E001E00CE0C7
:1047300007E0BC429CD2252016E7082305E046F09E
:104740004006102301E046F002066C2901D06829DA
:104750001DD0069804C8069000983946CDE900504F
:1047600002962046FEF7C6FF04460598401C0590B9
:104770000598007800287FF4F3AEB9F1000F11D04E
:10478000BC420DD220700DE0401E0590EDE706986A
:1047900030F8041B06908AB2B007DDD512B2DBE711
:1047A00007F8010C07B0A4EB0800BDE8F08F00008B
:1047B000284E554C4C2900000020704700207047BF
:1047C000002070470020704710B5FBF7CFFCFFF7C3
:1047D0008DF8FFF70DFBFFF7E5FBFFF7B5FBFFF7E4
:1047E00021F8FFF7E5FBFFF76DFCFFF7C7FB0020A3
:1047F00010BD000010B50346002211460448FCF726
:1048000015FABDE8104000210148FCF71CBA000071
:104810004012002010B5014600206FF02F0307E082
:10482000541C0C60127800EB800003EB4000104435
:104830000A681478303C0A2CF2D310BD70472DE979
:10484000F04106460F46FCF71EF9041E0D4618BF40
:104850000120284320F00040C0F17F6000F1E040DB
:10486000C00F0ED0301C18BF0120384320F000408C
:10487000C0F17F6000F1E040C00F04BF0120FDF7F0
:1048800005FF20462946BDE8F08100006420FFF7BF
:104890004DFCFDF751FA6420FFF748FCFDF7DCFB07
:1048A0006420FFF743FCFDF7D7FB6420FFF73EFCD5
:1048B00006A0FDF799FE0B4C40F24D152846FFF778
:1048C00035FCFDF7C9FB6060F8E7000074656D70AA
:1048D0005F746872656164207374617274757021AD
:1048E0000D0A00001C00002000263546C820FFF7F6
:1048F0001DFC1DA0FDF778FE214F224CDFF88880BB
:104900004FF00109B2463868012805D000252E462F
:104910000A20FFF70BFCF6E7207888B14FF47A7095
:10492000FFF704FC6D1C3C2D01D30025761C20787C
:10493000C0EB0010B6EB800F08D3D8F8001011B10F
:10494000C8F80090DFE784F802A0F9E7C6EB800121
:104950003C20B1FBF0F26270B1FBF0F200FB1210F0
:10496000A070C8F800A0CEE774696D655F746872C6
:104970006561642073746172747570210D0A0000A2
:10498000040000201C000020140000200000000093
:1049900000000000010203040607080900000000EF
:1049A00001020304000001000200010003000100F5
:1049B00002000100040001000200010003000100E8
:1049C00002000100050001000200010003000100D7
:1049D00002000100040001000200010003000100C8
:1049E00002000100060001000200010003000100B6
:1049F00002000100040001000200010003000100A8
:104A00000200010005000100020001000300010096
:104A10000200010004000100020001000300010087
:104A20000200010007000100020001000300010074
:104A30000200010004000100020001000300010067
:104A40000200010005000100020001000300010056
:104A50000200010004000100020001000300010047
:104A60000200010006000100020001000300010035
:104A70000200010004000100020001000300010027
:104A80000200010005000100020001000300010016
:104A90000200010004000100020001000300010007
:104AA0000200010030313233343536373839616233
:104AB0006364656600303132333435363738394116
:104AC0004243444546000000C5470008BD47000872
:104AD000B9470008C1470008F84A00080000002054
:104AE000CC0000006C260008C44B0008CC0000205D
:104AF0009C2300007C26000800000000000000004D
:104B000000000000000000000000000000000000A5
:104B10000000000000000000000000000100000094
:104B200010000000000000000024F400000000005D
:104B30000000000000000000000000000000000075
:104B40000000000001000000500000205000002084
:104B500078000000020000006000002060000020DB
:104B60002000000005000000700000207000002000
:104B700030000000060000008000002080000020BF
:104B8000340000000A000000900000209000002087
:104B90002C000000000000000000000000000000E9
:104BA0000000000000000000000000000000000005
:104BB00000000000000000000000000000000000F5
:044BC00000000000F1
:0400000508000131BD
:00000001FF
